:030000000208AE45
:0C08AE00787FE4F6D8FD7581200208F583
:10093A003E57656C636F6D65002057656C636F6D1C
:10094A0065003E4B6579205465737400204B6579C8
:10095A0020546573740048656C6C6F20576F726C15
:10096A006421004F4B204261636B004B6579205034
:10097A007265737365643A00555000444F574E00D0
:07098A004F4B002D2D2D0045
:100AFF00010800010900010D00010A00010C0001AD
:040B0F000B00C18096
:100A0500120B48E5097BFF70067A09793A80047A6A
:100A1500097943E4FF120A33E5097BFFB401067A3D
:0E0A250009794C80047A0979567F10020A3351
:100AB600120B487BFF7A097960E4FF120A337BFF49
:090AC6007A09796D7F10020A33F0
:100991008F0E120B487BFF7A097975E4FF120A3337
:1009A100E50EB401087BFF7A097982801EE50EB459
:1009B10002087BFF7A0979858011E50E7BFFB4037C
:1009C100067A09798A80047A09798D7F10120A33AF
:0109D1002203
:10080000120A9BD2001209D28F0AE4F50BE50A60A6
:1008100007E50C7003850A0B850A0CE50B6002F5F1
:100820000DE50814604114604524027055E50BB4D1
:10083000010DE509D3940040061509D2008043E577
:100840000BB4020DE509C3940150060509D20080DE
:1008500031E50B6403702BE5097005750801800311
:10086000750802D200801BE50BB403168005E50B6A
:10087000B40309E4F508F509D2008006E50B60022F
:10088000D20030001FC200E5087005120A0580146E
:10089000E508B40105120AB6800AE508B40205AFFE
:0E08A0000D1209917F0A7E00120A5F02080500
:100B1400C2A6C2A58F80D2A77F017E00120A5FC23F
:020B2400A72206
:100B2600D2A6C2A58F80D2A77F017E00120A5FC21D
:020B3600A722F4
:100A9B007F0F7E00120A5F7F38120B147F0C120B34
:0B0AAB00147F06120B147F01020B14D5
:0C0B48007F01120B147F027E00020A5F86
:100A33008B0F8A108911EF2480FF120B14AB0FAABE
:100A430010A911120ACF60130511E51170020510E8
:0C0A530014F9120ACFFF120B2680E222D9
:1009D20020B10D7F0A7E00120A5F20B1037F01223F
:1009E20020B00D7F0A7E00120A5F20B0037F022230
:1009F20020B20D7F0A7E00120A5F20B2037F03221B
:030A02007F002250
:100A5F00D3EF9400EE940040147D6E7C00ED1D707A
:0D0A6F00011CED4C70F7EF1F70E61E80E3D8
:010A7C002257
:100B3800438901758CD8758AF0D2A9D2AFD28C229C
:03000B00020B6085
:070B6000758CD8758AF03294
:0C0B5400E4F5C7F5C5F5C6F5C3F5C422ED
:100AE80075C78075C5018FC4E4F5C375C65A75C648
:070AF800A500AFC2020B5480
:100A7D0075C78075C5028FC4E4F5C38DC275C65A9E
:0E0A8D0075C6A500120B547F0A7E00020A5F98
:1008BA00020800E493A3F8E493A34003F68001F24C
:1008CA0008DFF48029E493A3F85407240CC8C3333F
:1008DA00C4540F4420C8834004F456800146F6DF0E
:1008EA00E4800B0102040810204080900AFFE47E95
:1008FA00019360BCA3FF543F30E509541FFEE49303
:10090A00A360010ECF54C025E060A840B8E493A3C9
:10091A00FAE493A3F8E493A3C8C582C8CAC583CAF4
:10092A00F0A3C8C582C8CAC583CADFE9DEE780BEAC
:010B130000E1
:100ACF00BB010689828A83E0225002E722BBFE0225
:090ADF00E32289828A83E4932258
:00000001FF
